{
  "_format": "hh-sol-artifact-1",
  "contractName": "TheScatter",
  "sourceName": "contracts/TheScatter.sol",
  "abi": [
    {
      "inputs": [],
      "stateMutability": "nonpayable",
      "type": "constructor"
    },
    {
      "anonymous": false,
      "inputs": [
        {
          "indexed": false,
          "internalType": "uint256",
          "name": "id",
          "type": "uint256"
        },
        {
          "indexed": false,
          "internalType": "string",
          "name": "title",
          "type": "string"
        },
        {
          "indexed": false,
          "internalType": "string",
          "name": "hash",
          "type": "string"
        },
        {
          "indexed": false,
          "internalType": "address",
          "name": "author",
          "type": "address"
        }
      ],
      "name": "PostCreated",
      "type": "event"
    },
    {
      "anonymous": false,
      "inputs": [
        {
          "indexed": false,
          "internalType": "uint256",
          "name": "id",
          "type": "uint256"
        },
        {
          "indexed": false,
          "internalType": "string",
          "name": "title",
          "type": "string"
        },
        {
          "indexed": false,
          "internalType": "string",
          "name": "hash",
          "type": "string"
        },
        {
          "indexed": false,
          "internalType": "bool",
          "name": "isPublished",
          "type": "bool"
        }
      ],
      "name": "PostUpdated",
      "type": "event"
    },
    {
      "inputs": [],
      "name": "authorsCount",
      "outputs": [
        {
          "internalType": "uint256",
          "name": "",
          "type": "uint256"
        }
      ],
      "stateMutability": "view",
      "type": "function"
    },
    {
      "inputs": [
        {
          "internalType": "string",
          "name": "title",
          "type": "string"
        },
        {
          "internalType": "string",
          "name": "hash",
          "type": "string"
        }
      ],
      "name": "createStory",
      "outputs": [],
      "stateMutability": "nonpayable",
      "type": "function"
    },
    {
      "inputs": [
        {
          "internalType": "address",
          "name": "walletAddr",
          "type": "address"
        }
      ],
      "name": "fetchStories",
      "outputs": [
        {
          "components": [
            {
              "internalType": "uint256",
              "name": "id",
              "type": "uint256"
            },
            {
              "internalType": "string",
              "name": "title",
              "type": "string"
            },
            {
              "internalType": "string",
              "name": "content",
              "type": "string"
            },
            {
              "internalType": "bool",
              "name": "isPublished",
              "type": "bool"
            },
            {
              "internalType": "uint256",
              "name": "createdAt",
              "type": "uint256"
            },
            {
              "internalType": "uint256",
              "name": "updatedAt",
              "type": "uint256"
            }
          ],
          "internalType": "struct TheScatter.Story[]",
          "name": "",
          "type": "tuple[]"
        }
      ],
      "stateMutability": "view",
      "type": "function"
    },
    {
      "inputs": [
        {
          "internalType": "address",
          "name": "walletAddr",
          "type": "address"
        },
        {
          "internalType": "uint256",
          "name": "storyId",
          "type": "uint256"
        }
      ],
      "name": "fetchStory",
      "outputs": [
        {
          "components": [
            {
              "internalType": "uint256",
              "name": "id",
              "type": "uint256"
            },
            {
              "internalType": "string",
              "name": "title",
              "type": "string"
            },
            {
              "internalType": "string",
              "name": "content",
              "type": "string"
            },
            {
              "internalType": "bool",
              "name": "isPublished",
              "type": "bool"
            },
            {
              "internalType": "uint256",
              "name": "createdAt",
              "type": "uint256"
            },
            {
              "internalType": "uint256",
              "name": "updatedAt",
              "type": "uint256"
            }
          ],
          "internalType": "struct TheScatter.Story",
          "name": "",
          "type": "tuple"
        }
      ],
      "stateMutability": "view",
      "type": "function"
    },
    {
      "inputs": [],
      "name": "owner",
      "outputs": [
        {
          "internalType": "address",
          "name": "",
          "type": "address"
        }
      ],
      "stateMutability": "view",
      "type": "function"
    },
    {
      "inputs": [],
      "name": "storiesCount",
      "outputs": [
        {
          "internalType": "uint256",
          "name": "",
          "type": "uint256"
        }
      ],
      "stateMutability": "view",
      "type": "function"
    },
    {
      "inputs": [
        {
          "internalType": "uint256",
          "name": "storyId",
          "type": "uint256"
        },
        {
          "internalType": "string",
          "name": "title",
          "type": "string"
        },
        {
          "internalType": "string",
          "name": "hash",
          "type": "string"
        },
        {
          "internalType": "bool",
          "name": "isPublished",
          "type": "bool"
        }
      ],
      "name": "updateStory",
      "outputs": [],
      "stateMutability": "nonpayable",
      "type": "function"
    }
  ],
  "bytecode": "0x60806040523480156200001157600080fd5b506200004160405180606001604052806023815260200162001a65602391396200009760201b62000bcd1760201c565b336000806101000a81548173ffffffffffffffffffffffffffffffffffffffff021916908373ffffffffffffffffffffffffffffffffffffffff160217905550600060018190555060006002819055506200022b565b6200013781604051602401620000ae9190620001a4565b6040516020818303038152906040527f41304fac000000000000000000000000000000000000000000000000000000007bffffffffffffffffffffffffffffffffffffffffffffffffffffffff19166020820180517bffffffffffffffffffffffffffffffffffffffffffffffffffffffff83818316178352505050506200013a60201b60201c565b50565b60008151905060006a636f6e736f6c652e6c6f679050602083016000808483855afa5050505050565b60006200017082620001c8565b6200017c8185620001d3565b93506200018e818560208601620001e4565b62000199816200021a565b840191505092915050565b60006020820190508181036000830152620001c0818462000163565b905092915050565b600081519050919050565b600082825260208201905092915050565b60005b8381101562000204578082015181840152602081019050620001e7565b8381111562000214576000848401525b50505050565b6000601f19601f8301169050919050565b61182a806200023b6000396000f3fe608060405234801561001057600080fd5b506004361061007d5760003560e01c80638864cc151161005b5780638864cc15146100ee5780638da5cb5b1461010a5780639151d40314610128578063a7b9056a146101445761007d565b806325ca819f146100825780633022b447146100a0578063407f0565146100d0575b600080fd5b61008a610174565b60405161009791906113db565b60405180910390f35b6100ba60048036038101906100b59190610eeb565b61017a565b6040516100c791906113b9565b60405180910390f35b6100d86103a6565b6040516100e591906113db565b60405180910390f35b61010860048036038101906101039190610f93565b6103ac565b005b6101126105b6565b60405161011f919061131a565b60405180910390f35b610142600480360381019061013d9190610f27565b6105da565b005b61015e60048036038101906101599190610ec2565b610897565b60405161016b9190611335565b60405180910390f35b60015481565b610182610cb3565b8273ffffffffffffffffffffffffffffffffffffffff166006600084815260200190815260200160002060009054906101000a900473ffffffffffffffffffffffffffffffffffffffff1673ffffffffffffffffffffffffffffffffffffffff1614610223576040517f08c379a000000000000000000000000000000000000000000000000000000000815260040161021a90611399565b60405180910390fd5b600460008381526020019081526020016000206040518060c00160405290816000820154815260200160018201805461025b906115ed565b80601f0160208091040260200160405190810160405280929190818152602001828054610287906115ed565b80156102d45780601f106102a9576101008083540402835291602001916102d4565b820191906000526020600020905b8154815290600101906020018083116102b757829003601f168201915b505050505081526020016002820180546102ed906115ed565b80601f0160208091040260200160405190810160405280929190818152602001828054610319906115ed565b80156103665780601f1061033b57610100808354040283529160200191610366565b820191906000526020600020905b81548152906001019060200180831161034957829003601f168201915b505050505081526020016003820160009054906101000a900460ff1615151515815260200160048201548152602001600582015481525050905092915050565b60025481565b60006006600086815260200190815260200160002060009054906101000a900473ffffffffffffffffffffffffffffffffffffffff1690508073ffffffffffffffffffffffffffffffffffffffff163373ffffffffffffffffffffffffffffffffffffffff1614610452576040517f08c379a000000000000000000000000000000000000000000000000000000000815260040161044990611379565b60405180910390fd5b600060046000878152602001908152602001600020905084816001019080519060200190610481929190610ceb565b50828160030160006101000a81548160ff021916908315150217905550838160020190805190602001906104b6929190610ceb565b50428160050181905550806005856040516104d19190611303565b90815260200160405180910390206000820154816000015560018201816001019080546104fd906115ed565b610508929190610d71565b50600282018160020190805461051d906115ed565b610528929190610d71565b506003820160009054906101000a900460ff168160030160006101000a81548160ff02191690831515021790555060048201548160040155600582015481600501559050507f9f8eb93fc073102bbd3072664634ab200707a4f11d94aace9cc8d0e4d019eff581600001548686866040516105a69493929190611449565b60405180910390a1505050505050565b60008054906101000a900473ffffffffffffffffffffffffffffffffffffffff1681565b6105e46003610c66565b60006105f06003610c7c565b905060006004600083815260200190815260200160002090508181600001819055508381600101908051906020019061062a929190610ceb565b5060018160030160006101000a81548160ff02191690831515021790555082816002019080519060200190610660929190610ceb565b50428160040181905550428160050181905550806005846040516106849190611303565b90815260200160405180910390206000820154816000015560018201816001019080546106b0906115ed565b6106bb929190610d71565b5060028201816002019080546106d0906115ed565b6106db929190610d71565b506003820160009054906101000a900460ff168160030160006101000a81548160ff0219169083151502179055506004820154816004015560058201548160050155905050336006600084815260200190815260200160002060006101000a81548173ffffffffffffffffffffffffffffffffffffffff021916908373ffffffffffffffffffffffffffffffffffffffff1602179055506000600760003373ffffffffffffffffffffffffffffffffffffffff1673ffffffffffffffffffffffffffffffffffffffff1681526020019081526020016000208054905014156107d657600160008154809291906107d090611650565b91905055505b600260008154809291906107e990611650565b9190505550600760003373ffffffffffffffffffffffffffffffffffffffff1673ffffffffffffffffffffffffffffffffffffffff1681526020019081526020016000208290806001815401808255809150506001900390600052602060002001600090919091909150557fb80f87406b72baa5a47a424e6c8f284ee91e4fef063c94c62ab1ea33a27a858b8285853360405161088994939291906113f6565b60405180910390a150505050565b60606000600760008473ffffffffffffffffffffffffffffffffffffffff1673ffffffffffffffffffffffffffffffffffffffff16815260200190815260200160002080549050905060008167ffffffffffffffff811115610922577f4e487b7100000000000000000000000000000000000000000000000000000000600052604160045260246000fd5b60405190808252806020026020018201604052801561095b57816020015b610948610cb3565b8152602001906001900390816109405790505b50905060005b82811015610bc257600060046000600760008973ffffffffffffffffffffffffffffffffffffffff1673ffffffffffffffffffffffffffffffffffffffff16815260200190815260200160002084815481106109e6577f4e487b7100000000000000000000000000000000000000000000000000000000600052603260045260246000fd5b906000526020600020015481526020019081526020016000209050806040518060c001604052908160008201548152602001600182018054610a27906115ed565b80601f0160208091040260200160405190810160405280929190818152602001828054610a53906115ed565b8015610aa05780601f10610a7557610100808354040283529160200191610aa0565b820191906000526020600020905b815481529060010190602001808311610a8357829003601f168201915b50505050508152602001600282018054610ab9906115ed565b80601f0160208091040260200160405190810160405280929190818152602001828054610ae5906115ed565b8015610b325780601f10610b0757610100808354040283529160200191610b32565b820191906000526020600020905b815481529060010190602001808311610b1557829003601f168201915b505050505081526020016003820160009054906101000a900460ff1615151515815260200160048201548152602001600582015481525050838381518110610ba3577f4e487b7100000000000000000000000000000000000000000000000000000000600052603260045260246000fd5b6020026020010181905250508080610bba90611650565b915050610961565b508092505050919050565b610c6381604051602401610be19190611357565b6040516020818303038152906040527f41304fac000000000000000000000000000000000000000000000000000000007bffffffffffffffffffffffffffffffffffffffffffffffffffffffff19166020820180517bffffffffffffffffffffffffffffffffffffffffffffffffffffffff8381831617835250505050610c8a565b50565b6001816000016000828254019250508190555050565b600081600001549050919050565b60008151905060006a636f6e736f6c652e6c6f679050602083016000808483855afa5050505050565b6040518060c0016040528060008152602001606081526020016060815260200160001515815260200160008152602001600081525090565b828054610cf7906115ed565b90600052602060002090601f016020900481019282610d195760008555610d60565b82601f10610d3257805160ff1916838001178555610d60565b82800160010185558215610d60579182015b82811115610d5f578251825591602001919060010190610d44565b5b509050610d6d9190610dfe565b5090565b828054610d7d906115ed565b90600052602060002090601f016020900481019282610d9f5760008555610ded565b82601f10610db05780548555610ded565b82800160010185558215610ded57600052602060002091601f016020900482015b82811115610dec578254825591600101919060010190610dd1565b5b509050610dfa9190610dfe565b5090565b5b80821115610e17576000816000905550600101610dff565b5090565b6000610e2e610e29846114c1565b61149c565b905082815260208101848484011115610e4657600080fd5b610e518482856115ab565b509392505050565b600081359050610e68816117af565b92915050565b600081359050610e7d816117c6565b92915050565b600082601f830112610e9457600080fd5b8135610ea4848260208601610e1b565b91505092915050565b600081359050610ebc816117dd565b92915050565b600060208284031215610ed457600080fd5b6000610ee284828501610e59565b91505092915050565b60008060408385031215610efe57600080fd5b6000610f0c85828601610e59565b9250506020610f1d85828601610ead565b9150509250929050565b60008060408385031215610f3a57600080fd5b600083013567ffffffffffffffff811115610f5457600080fd5b610f6085828601610e83565b925050602083013567ffffffffffffffff811115610f7d57600080fd5b610f8985828601610e83565b9150509250929050565b60008060008060808587031215610fa957600080fd5b6000610fb787828801610ead565b945050602085013567ffffffffffffffff811115610fd457600080fd5b610fe087828801610e83565b935050604085013567ffffffffffffffff811115610ffd57600080fd5b61100987828801610e83565b925050606061101a87828801610e6e565b91505092959194509250565b600061103283836111c5565b905092915050565b61104381611563565b82525050565b600061105482611502565b61105e8185611525565b935083602082028501611070856114f2565b8060005b858110156110ac578484038952815161108d8582611026565b945061109883611518565b925060208a01995050600181019050611074565b50829750879550505050505092915050565b6110c781611575565b82525050565b6110d681611575565b82525050565b60006110e78261150d565b6110f18185611536565b93506111018185602086016115ba565b61110a81611726565b840191505092915050565b60006111208261150d565b61112a8185611547565b935061113a8185602086016115ba565b61114381611726565b840191505092915050565b60006111598261150d565b6111638185611558565b93506111738185602086016115ba565b80840191505092915050565b600061118c602483611547565b915061119782611737565b604082019050919050565b60006111af601583611547565b91506111ba82611786565b602082019050919050565b600060c0830160008301516111dd60008601826112e5565b50602083015184820360208601526111f582826110dc565b9150506040830151848203604086015261120f82826110dc565b915050606083015161122460608601826110be565b50608083015161123760808601826112e5565b5060a083015161124a60a08601826112e5565b508091505092915050565b600060c08301600083015161126d60008601826112e5565b506020830151848203602086015261128582826110dc565b9150506040830151848203604086015261129f82826110dc565b91505060608301516112b460608601826110be565b5060808301516112c760808601826112e5565b5060a08301516112da60a08601826112e5565b508091505092915050565b6112ee816115a1565b82525050565b6112fd816115a1565b82525050565b600061130f828461114e565b915081905092915050565b600060208201905061132f600083018461103a565b92915050565b6000602082019050818103600083015261134f8184611049565b905092915050565b600060208201905081810360008301526113718184611115565b905092915050565b600060208201905081810360008301526113928161117f565b9050919050565b600060208201905081810360008301526113b2816111a2565b9050919050565b600060208201905081810360008301526113d38184611255565b905092915050565b60006020820190506113f060008301846112f4565b92915050565b600060808201905061140b60008301876112f4565b818103602083015261141d8186611115565b905081810360408301526114318185611115565b9050611440606083018461103a565b95945050505050565b600060808201905061145e60008301876112f4565b81810360208301526114708186611115565b905081810360408301526114848185611115565b905061149360608301846110cd565b95945050505050565b60006114a66114b7565b90506114b2828261161f565b919050565b6000604051905090565b600067ffffffffffffffff8211156114dc576114db6116f7565b5b6114e582611726565b9050602081019050919050565b6000819050602082019050919050565b600081519050919050565b600081519050919050565b6000602082019050919050565b600082825260208201905092915050565b600082825260208201905092915050565b600082825260208201905092915050565b600081905092915050565b600061156e82611581565b9050919050565b60008115159050919050565b600073ffffffffffffffffffffffffffffffffffffffff82169050919050565b6000819050919050565b82818337600083830152505050565b60005b838110156115d85780820151818401526020810190506115bd565b838111156115e7576000848401525b50505050565b6000600282049050600182168061160557607f821691505b60208210811415611619576116186116c8565b5b50919050565b61162882611726565b810181811067ffffffffffffffff82111715611647576116466116f7565b5b80604052505050565b600061165b826115a1565b91507fffffffffffffffffffffffffffffffffffffffffffffffffffffffffffffffff82141561168e5761168d611699565b5b600182019050919050565b7f4e487b7100000000000000000000000000000000000000000000000000000000600052601160045260246000fd5b7f4e487b7100000000000000000000000000000000000000000000000000000000600052602260045260246000fd5b7f4e487b7100000000000000000000000000000000000000000000000000000000600052604160045260246000fd5b6000601f19601f8301169050919050565b7f4f6e6c792074686520617574686f722063616e2065646974207468656972207360008201527f746f727900000000000000000000000000000000000000000000000000000000602082015250565b7f43616e6e6f742066696e64207468652073746f72790000000000000000000000600082015250565b6117b881611563565b81146117c357600080fd5b50565b6117cf81611575565b81146117da57600080fd5b50565b6117e6816115a1565b81146117f157600080fd5b5056fea26469706673582212209fcf25c7a6d8220d16f5ee8e5dad77b8f2764411f0ed69f04644d54db6aec4d464736f6c634300080400334465706c6f79696e6720546865205363617474657220436f6e74726163742056312e31",
  "linkReferences": {},
  "deployedLinkReferences": {}
}