{
  "_format": "hh-sol-artifact-1",
  "contractName": "TheScatter",
  "sourceName": "contracts/TheScatter.sol",
  "abi": [
    {
      "inputs": [],
      "stateMutability": "nonpayable",
      "type": "constructor"
    },
    {
      "anonymous": false,
      "inputs": [
        {
          "indexed": false,
          "internalType": "uint256",
          "name": "id",
          "type": "uint256"
        },
        {
          "indexed": false,
          "internalType": "string",
          "name": "title",
          "type": "string"
        },
        {
          "indexed": false,
          "internalType": "string",
          "name": "hash",
          "type": "string"
        }
      ],
      "name": "PostCreated",
      "type": "event"
    },
    {
      "anonymous": false,
      "inputs": [
        {
          "indexed": false,
          "internalType": "uint256",
          "name": "id",
          "type": "uint256"
        },
        {
          "indexed": false,
          "internalType": "string",
          "name": "title",
          "type": "string"
        },
        {
          "indexed": false,
          "internalType": "string",
          "name": "hash",
          "type": "string"
        },
        {
          "indexed": false,
          "internalType": "bool",
          "name": "isPublished",
          "type": "bool"
        }
      ],
      "name": "PostUpdated",
      "type": "event"
    },
    {
      "inputs": [],
      "name": "authorsCount",
      "outputs": [
        {
          "internalType": "uint256",
          "name": "",
          "type": "uint256"
        }
      ],
      "stateMutability": "view",
      "type": "function"
    },
    {
      "inputs": [
        {
          "internalType": "string",
          "name": "title",
          "type": "string"
        },
        {
          "internalType": "string",
          "name": "hash",
          "type": "string"
        }
      ],
      "name": "createStory",
      "outputs": [],
      "stateMutability": "nonpayable",
      "type": "function"
    },
    {
      "inputs": [
        {
          "internalType": "address",
          "name": "walletAddr",
          "type": "address"
        }
      ],
      "name": "fetchStories",
      "outputs": [
        {
          "components": [
            {
              "internalType": "uint256",
              "name": "id",
              "type": "uint256"
            },
            {
              "internalType": "string",
              "name": "title",
              "type": "string"
            },
            {
              "internalType": "string",
              "name": "content",
              "type": "string"
            },
            {
              "internalType": "bool",
              "name": "isPublished",
              "type": "bool"
            },
            {
              "internalType": "uint256",
              "name": "createdAt",
              "type": "uint256"
            },
            {
              "internalType": "uint256",
              "name": "updatedAt",
              "type": "uint256"
            }
          ],
          "internalType": "struct TheScatter.Story[]",
          "name": "",
          "type": "tuple[]"
        }
      ],
      "stateMutability": "view",
      "type": "function"
    },
    {
      "inputs": [
        {
          "internalType": "address",
          "name": "walletAddr",
          "type": "address"
        },
        {
          "internalType": "uint256",
          "name": "storyId",
          "type": "uint256"
        }
      ],
      "name": "fetchStory",
      "outputs": [
        {
          "components": [
            {
              "internalType": "uint256",
              "name": "id",
              "type": "uint256"
            },
            {
              "internalType": "string",
              "name": "title",
              "type": "string"
            },
            {
              "internalType": "string",
              "name": "content",
              "type": "string"
            },
            {
              "internalType": "bool",
              "name": "isPublished",
              "type": "bool"
            },
            {
              "internalType": "uint256",
              "name": "createdAt",
              "type": "uint256"
            },
            {
              "internalType": "uint256",
              "name": "updatedAt",
              "type": "uint256"
            }
          ],
          "internalType": "struct TheScatter.Story",
          "name": "",
          "type": "tuple"
        }
      ],
      "stateMutability": "view",
      "type": "function"
    },
    {
      "inputs": [],
      "name": "owner",
      "outputs": [
        {
          "internalType": "address",
          "name": "",
          "type": "address"
        }
      ],
      "stateMutability": "view",
      "type": "function"
    },
    {
      "inputs": [],
      "name": "storiesCount",
      "outputs": [
        {
          "internalType": "uint256",
          "name": "",
          "type": "uint256"
        }
      ],
      "stateMutability": "view",
      "type": "function"
    },
    {
      "inputs": [
        {
          "internalType": "uint256",
          "name": "storyId",
          "type": "uint256"
        },
        {
          "internalType": "string",
          "name": "title",
          "type": "string"
        },
        {
          "internalType": "string",
          "name": "hash",
          "type": "string"
        },
        {
          "internalType": "bool",
          "name": "isPublished",
          "type": "bool"
        }
      ],
      "name": "updateStory",
      "outputs": [],
      "stateMutability": "nonpayable",
      "type": "function"
    }
  ],
  "bytecode": "0x60806040523480156200001157600080fd5b506200005d6040518060400160405280601e81526020017f4465706c6f79696e6720546865205363617474657220436f6e74726163740000815250620000b360201b62000bcb1760201c565b336000806101000a81548173ffffffffffffffffffffffffffffffffffffffff021916908373ffffffffffffffffffffffffffffffffffffffff1602179055506000600181905550600060028190555062000247565b6200015381604051602401620000ca9190620001c0565b6040516020818303038152906040527f41304fac000000000000000000000000000000000000000000000000000000007bffffffffffffffffffffffffffffffffffffffffffffffffffffffff19166020820180517bffffffffffffffffffffffffffffffffffffffffffffffffffffffff83818316178352505050506200015660201b60201c565b50565b60008151905060006a636f6e736f6c652e6c6f679050602083016000808483855afa5050505050565b60006200018c82620001e4565b620001988185620001ef565b9350620001aa81856020860162000200565b620001b58162000236565b840191505092915050565b60006020820190508181036000830152620001dc81846200017f565b905092915050565b600081519050919050565b600082825260208201905092915050565b60005b838110156200022057808201518184015260208101905062000203565b8381111562000230576000848401525b50505050565b6000601f19601f8301169050919050565b61181a80620002576000396000f3fe608060405234801561001057600080fd5b506004361061007d5760003560e01c80638864cc151161005b5780638864cc15146100ee5780638da5cb5b1461010a5780639151d40314610128578063a7b9056a146101445761007d565b806325ca819f146100825780633022b447146100a0578063407f0565146100d0575b600080fd5b61008a610174565b60405161009791906113d9565b60405180910390f35b6100ba60048036038101906100b59190610ee9565b61017a565b6040516100c791906113b7565b60405180910390f35b6100d86103a6565b6040516100e591906113d9565b60405180910390f35b61010860048036038101906101039190610f91565b6103ac565b005b6101126105b6565b60405161011f9190611318565b60405180910390f35b610142600480360381019061013d9190610f25565b6105da565b005b61015e60048036038101906101599190610ec0565b610895565b60405161016b9190611333565b60405180910390f35b60015481565b610182610cb1565b8273ffffffffffffffffffffffffffffffffffffffff166006600084815260200190815260200160002060009054906101000a900473ffffffffffffffffffffffffffffffffffffffff1673ffffffffffffffffffffffffffffffffffffffff1614610223576040517f08c379a000000000000000000000000000000000000000000000000000000000815260040161021a90611397565b60405180910390fd5b600460008381526020019081526020016000206040518060c00160405290816000820154815260200160018201805461025b906115dd565b80601f0160208091040260200160405190810160405280929190818152602001828054610287906115dd565b80156102d45780601f106102a9576101008083540402835291602001916102d4565b820191906000526020600020905b8154815290600101906020018083116102b757829003601f168201915b505050505081526020016002820180546102ed906115dd565b80601f0160208091040260200160405190810160405280929190818152602001828054610319906115dd565b80156103665780601f1061033b57610100808354040283529160200191610366565b820191906000526020600020905b81548152906001019060200180831161034957829003601f168201915b505050505081526020016003820160009054906101000a900460ff1615151515815260200160048201548152602001600582015481525050905092915050565b60025481565b60006006600086815260200190815260200160002060009054906101000a900473ffffffffffffffffffffffffffffffffffffffff1690508073ffffffffffffffffffffffffffffffffffffffff163373ffffffffffffffffffffffffffffffffffffffff1614610452576040517f08c379a000000000000000000000000000000000000000000000000000000000815260040161044990611377565b60405180910390fd5b600060046000878152602001908152602001600020905084816001019080519060200190610481929190610ce9565b50828160030160006101000a81548160ff021916908315150217905550838160020190805190602001906104b6929190610ce9565b50428160050181905550806005856040516104d19190611301565b90815260200160405180910390206000820154816000015560018201816001019080546104fd906115dd565b610508929190610d6f565b50600282018160020190805461051d906115dd565b610528929190610d6f565b506003820160009054906101000a900460ff168160030160006101000a81548160ff02191690831515021790555060048201548160040155600582015481600501559050507f9f8eb93fc073102bbd3072664634ab200707a4f11d94aace9cc8d0e4d019eff581600001548686866040516105a69493929190611439565b60405180910390a1505050505050565b60008054906101000a900473ffffffffffffffffffffffffffffffffffffffff1681565b6105e46003610c64565b60006105f06003610c7a565b905060006004600083815260200190815260200160002090508181600001819055508381600101908051906020019061062a929190610ce9565b5060018160030160006101000a81548160ff02191690831515021790555082816002019080519060200190610660929190610ce9565b50428160040181905550428160050181905550806005846040516106849190611301565b90815260200160405180910390206000820154816000015560018201816001019080546106b0906115dd565b6106bb929190610d6f565b5060028201816002019080546106d0906115dd565b6106db929190610d6f565b506003820160009054906101000a900460ff168160030160006101000a81548160ff0219169083151502179055506004820154816004015560058201548160050155905050336006600084815260200190815260200160002060006101000a81548173ffffffffffffffffffffffffffffffffffffffff021916908373ffffffffffffffffffffffffffffffffffffffff1602179055506000600760003373ffffffffffffffffffffffffffffffffffffffff1673ffffffffffffffffffffffffffffffffffffffff1681526020019081526020016000208054905014156107d657600160008154809291906107d090611640565b91905055505b600260008154809291906107e990611640565b9190505550600760003373ffffffffffffffffffffffffffffffffffffffff1673ffffffffffffffffffffffffffffffffffffffff1681526020019081526020016000208290806001815401808255809150506001900390600052602060002001600090919091909150557fe6851f0b99a9d86e5d68a97f65218980851216ce297f789c6b6b7e82ca1d90c8828585604051610887939291906113f4565b60405180910390a150505050565b60606000600760008473ffffffffffffffffffffffffffffffffffffffff1673ffffffffffffffffffffffffffffffffffffffff16815260200190815260200160002080549050905060008167ffffffffffffffff811115610920577f4e487b7100000000000000000000000000000000000000000000000000000000600052604160045260246000fd5b60405190808252806020026020018201604052801561095957816020015b610946610cb1565b81526020019060019003908161093e5790505b50905060005b82811015610bc057600060046000600760008973ffffffffffffffffffffffffffffffffffffffff1673ffffffffffffffffffffffffffffffffffffffff16815260200190815260200160002084815481106109e4577f4e487b7100000000000000000000000000000000000000000000000000000000600052603260045260246000fd5b906000526020600020015481526020019081526020016000209050806040518060c001604052908160008201548152602001600182018054610a25906115dd565b80601f0160208091040260200160405190810160405280929190818152602001828054610a51906115dd565b8015610a9e5780601f10610a7357610100808354040283529160200191610a9e565b820191906000526020600020905b815481529060010190602001808311610a8157829003601f168201915b50505050508152602001600282018054610ab7906115dd565b80601f0160208091040260200160405190810160405280929190818152602001828054610ae3906115dd565b8015610b305780601f10610b0557610100808354040283529160200191610b30565b820191906000526020600020905b815481529060010190602001808311610b1357829003601f168201915b505050505081526020016003820160009054906101000a900460ff1615151515815260200160048201548152602001600582015481525050838381518110610ba1577f4e487b7100000000000000000000000000000000000000000000000000000000600052603260045260246000fd5b6020026020010181905250508080610bb890611640565b91505061095f565b508092505050919050565b610c6181604051602401610bdf9190611355565b6040516020818303038152906040527f41304fac000000000000000000000000000000000000000000000000000000007bffffffffffffffffffffffffffffffffffffffffffffffffffffffff19166020820180517bffffffffffffffffffffffffffffffffffffffffffffffffffffffff8381831617835250505050610c88565b50565b6001816000016000828254019250508190555050565b600081600001549050919050565b60008151905060006a636f6e736f6c652e6c6f679050602083016000808483855afa5050505050565b6040518060c0016040528060008152602001606081526020016060815260200160001515815260200160008152602001600081525090565b828054610cf5906115dd565b90600052602060002090601f016020900481019282610d175760008555610d5e565b82601f10610d3057805160ff1916838001178555610d5e565b82800160010185558215610d5e579182015b82811115610d5d578251825591602001919060010190610d42565b5b509050610d6b9190610dfc565b5090565b828054610d7b906115dd565b90600052602060002090601f016020900481019282610d9d5760008555610deb565b82601f10610dae5780548555610deb565b82800160010185558215610deb57600052602060002091601f016020900482015b82811115610dea578254825591600101919060010190610dcf565b5b509050610df89190610dfc565b5090565b5b80821115610e15576000816000905550600101610dfd565b5090565b6000610e2c610e27846114b1565b61148c565b905082815260208101848484011115610e4457600080fd5b610e4f84828561159b565b509392505050565b600081359050610e668161179f565b92915050565b600081359050610e7b816117b6565b92915050565b600082601f830112610e9257600080fd5b8135610ea2848260208601610e19565b91505092915050565b600081359050610eba816117cd565b92915050565b600060208284031215610ed257600080fd5b6000610ee084828501610e57565b91505092915050565b60008060408385031215610efc57600080fd5b6000610f0a85828601610e57565b9250506020610f1b85828601610eab565b9150509250929050565b60008060408385031215610f3857600080fd5b600083013567ffffffffffffffff811115610f5257600080fd5b610f5e85828601610e81565b925050602083013567ffffffffffffffff811115610f7b57600080fd5b610f8785828601610e81565b9150509250929050565b60008060008060808587031215610fa757600080fd5b6000610fb587828801610eab565b945050602085013567ffffffffffffffff811115610fd257600080fd5b610fde87828801610e81565b935050604085013567ffffffffffffffff811115610ffb57600080fd5b61100787828801610e81565b925050606061101887828801610e6c565b91505092959194509250565b600061103083836111c3565b905092915050565b61104181611553565b82525050565b6000611052826114f2565b61105c8185611515565b93508360208202850161106e856114e2565b8060005b858110156110aa578484038952815161108b8582611024565b945061109683611508565b925060208a01995050600181019050611072565b50829750879550505050505092915050565b6110c581611565565b82525050565b6110d481611565565b82525050565b60006110e5826114fd565b6110ef8185611526565b93506110ff8185602086016115aa565b61110881611716565b840191505092915050565b600061111e826114fd565b6111288185611537565b93506111388185602086016115aa565b61114181611716565b840191505092915050565b6000611157826114fd565b6111618185611548565b93506111718185602086016115aa565b80840191505092915050565b600061118a602483611537565b915061119582611727565b604082019050919050565b60006111ad601583611537565b91506111b882611776565b602082019050919050565b600060c0830160008301516111db60008601826112e3565b50602083015184820360208601526111f382826110da565b9150506040830151848203604086015261120d82826110da565b915050606083015161122260608601826110bc565b50608083015161123560808601826112e3565b5060a083015161124860a08601826112e3565b508091505092915050565b600060c08301600083015161126b60008601826112e3565b506020830151848203602086015261128382826110da565b9150506040830151848203604086015261129d82826110da565b91505060608301516112b260608601826110bc565b5060808301516112c560808601826112e3565b5060a08301516112d860a08601826112e3565b508091505092915050565b6112ec81611591565b82525050565b6112fb81611591565b82525050565b600061130d828461114c565b915081905092915050565b600060208201905061132d6000830184611038565b92915050565b6000602082019050818103600083015261134d8184611047565b905092915050565b6000602082019050818103600083015261136f8184611113565b905092915050565b600060208201905081810360008301526113908161117d565b9050919050565b600060208201905081810360008301526113b0816111a0565b9050919050565b600060208201905081810360008301526113d18184611253565b905092915050565b60006020820190506113ee60008301846112f2565b92915050565b600060608201905061140960008301866112f2565b818103602083015261141b8185611113565b9050818103604083015261142f8184611113565b9050949350505050565b600060808201905061144e60008301876112f2565b81810360208301526114608186611113565b905081810360408301526114748185611113565b905061148360608301846110cb565b95945050505050565b60006114966114a7565b90506114a2828261160f565b919050565b6000604051905090565b600067ffffffffffffffff8211156114cc576114cb6116e7565b5b6114d582611716565b9050602081019050919050565b6000819050602082019050919050565b600081519050919050565b600081519050919050565b6000602082019050919050565b600082825260208201905092915050565b600082825260208201905092915050565b600082825260208201905092915050565b600081905092915050565b600061155e82611571565b9050919050565b60008115159050919050565b600073ffffffffffffffffffffffffffffffffffffffff82169050919050565b6000819050919050565b82818337600083830152505050565b60005b838110156115c85780820151818401526020810190506115ad565b838111156115d7576000848401525b50505050565b600060028204905060018216806115f557607f821691505b60208210811415611609576116086116b8565b5b50919050565b61161882611716565b810181811067ffffffffffffffff82111715611637576116366116e7565b5b80604052505050565b600061164b82611591565b91507fffffffffffffffffffffffffffffffffffffffffffffffffffffffffffffffff82141561167e5761167d611689565b5b600182019050919050565b7f4e487b7100000000000000000000000000000000000000000000000000000000600052601160045260246000fd5b7f4e487b7100000000000000000000000000000000000000000000000000000000600052602260045260246000fd5b7f4e487b7100000000000000000000000000000000000000000000000000000000600052604160045260246000fd5b6000601f19601f8301169050919050565b7f4f6e6c792074686520617574686f722063616e2065646974207468656972207360008201527f746f727900000000000000000000000000000000000000000000000000000000602082015250565b7f43616e6e6f742066696e64207468652073746f72790000000000000000000000600082015250565b6117a881611553565b81146117b357600080fd5b50565b6117bf81611565565b81146117ca57600080fd5b50565b6117d681611591565b81146117e157600080fd5b5056fea2646970667358221220edb4e7dcd1ae7f152022380623881818e203a0fad02eddec3a08ea7026a3b1d264736f6c63430008040033",
  "linkReferences": {},
  "deployedLinkReferences": {}
}